:020000040800F2
:1000000000040020CF010008A103000899030008A4
:100010009D0300087D0200083B0600080000000068
:10002000000000000000000000000000E5030008E0
:100030008102000800000000A3030008E703000895
:10004000EF010008EF010008EF010008EF010008D0
:10005000EF010008EF010008EF010008EF010008C0
:10006000EF010008EF010008EF010008EF010008B0
:10007000EF010008EF010008EF010008EF010008A0
:10008000EF010008EF010008EF010008EF01000890
:10009000EF010008EF010008EF010008EF01000880
:1000A000EF010008EF010008EF010008EF01000870
:1000B000EF010008EF010008EF010008EF01000860
:1000C000EF010008EF010008EF010008EF01000850
:1000D000EF01000855050008EF010008EF010008D6
:1000E000EF010008EF010008EF010008EF01000830
:1000F000EF010008EF010008EF010008EF01000820
:10010000EF010008EF010008EF010008EF0100080F
:10011000EF010008EF010008EF010008EF010008FF
:10012000EF010008EF010008EF010008EF010008EF
:1001300000F002F800F03AF80AA090E8000C8244BF
:100140008344AAF10107DA4501D100F02FF8AFF29C
:10015000090EBAE80F0013F0010F18BFFB1A43F0A5
:100160000103184780050000A0050000103A24BFD5
:1001700078C878C1FAD8520724BF30C830C144BF0C
:1001800004680C607047000000230024002500264E
:10019000103A28BF78C1FBD8520728BF30C148BFEA
:1001A0000B6070471FB51FBD10B510BD00F037F8CC
:1001B0001146FFF7F7FF00F045FA00F055F803B4D9
:1001C000FFF7F2FF03BC00F03AFA000070470B485B
:1001D00080470B4981F308880A480047FEE7FEE79D
:1001E000FEE7FEE7FEE7FEE7FEE7FEE7FEE7FEE7E7
:1001F00005480649044A064B70470000CD01000837
:1002000030090020310100083001002030090020B1
:10021000300100207047704770477047704775463F
:1002200000F028F8AE4605006946534620F0070066
:10023000854618B020B5FFF7DBFFBDE820404FF042
:1002400000064FF000074FF000084FF0000B21F0C0
:100250000701AC46ACE8C009ACE8C009ACE8C0098D
:10026000ACE8C0098D4670470446AFF300802046D5
:10027000FFF7A5FF00487047D000002000BFFEE751
:1002800070472DE9F041024600250026002000239A
:100290000024002791F803C00CF00F0591F803C06B
:1002A0000CF0100CBCF1000F03D091F802C04CEA26
:1002B000050591F800C0BCF1000F31D01468002092
:1002C0002BE04FF0010C0CFA00F3B1F800C00CEA7F
:1002D00003069E4220D183004FF00F0C0CFA03F767
:1002E000BC4305FA03FC4CEA040491F803C0BCF1DA
:1002F000280F06D14FF0010C0CFA00FCC2F814C014
:100300000AE091F803C0BCF1480F05D14FF0010C91
:100310000CFA00FCC2F810C0401C0828D1D31460AD
:10032000B1F800C0BCF1FF0F34DD546800202EE0AE
:1003300000F1080C4FF0010808FA0CF3B1F800C006
:100340000CEA03069E4221D183004FF00F0C0CFAF9
:1003500003F7BC4305FA03FC4CEA040491F803C01C
:10036000BCF1280F05D100F1080C08FA0CF8C2F80E
:10037000148091F803C0BCF1480F07D100F1080CBC
:100380004FF0010808FA0CF8C2F81080401C082849
:10039000CED35460BDE8F08100BFFEE700BFFEE7AA
:1003A0007047704729B1064AD2690243044BDA61AB
:1003B00004E0034AD2698243014BDA6170470000CE
:1003C0000010024029B1064A92690243044B9A6127
:1003D00004E0034A92698243014B9A61704700002E
:1003E000001002407047704721B1028842F00102BC
:1003F000028004E002884FF6FE731A4002807047C4
:1004000070B5002400220023058C4FF6FE7635409F
:100410000584028C8388048B4FF68F752C40B51EA3
:100420002C400D882C43751E2A400D892A434D8887
:100430002A43144DA8420BD0134DA84208D0134DA7
:10044000A84205D0124DA84202D0124DA84213D1A5
:100450004FF6F7752A404D892A434FF6FB752A401F
:100460008D882A434FF6FF652B404FF6FF552B40F2
:100470008D892B43CD892B4383800483CD8885864A
:10048000028470BD002C0140003401400040014056
:1004900000440140004801400A460021018B4FF60C
:1004A000F77319401143018370478186704700003C
:1004B000002202881D4B98420ED01D4B98420BD053
:1004C000B0F1804F08D01B4B984205D01A4B984290
:1004D00002D01A4B984204D14FF68F731A404B88C2
:1004E0001A43174B984207D0164B984204D04FF648
:1004F000FF431A40CB881A4302808B8883850B8880
:1005000003850A4B98420BD0094B984208D00E4BFA
:10051000984205D00D4B984202D00D4B984201D124
:100520000B7A03860123838270470000002C014070
:10053000003401400004004000080040000C00406E
:100540000010004000140040004001400044014001
:100550000048014010B540F225511D4800F03EF81A
:1005600010B31B4800F064F8C4B21A48008800F4C5
:100570000040C8B91748008800F4804060B10A2CD8
:1005800003D000201349088020E01248008840F47E
:1005900000401049088019E00D2C06D10D48008854
:1005A00040F480400B49088010E00A480088C0F3FE
:1005B0000D0009490C5407480088401C0549088073
:1005C00008460088C72801DD0020088010BD000013
:1005D00000380140040000200800002070B50246E9
:1005E000002400230025002040F66A16B14200D105
:1005F00000BFC1F3421501F01F03012606FA03F301
:10060000012D02D19689334006E0022D02D1168ACF
:10061000334001E0968A33400C12012606FA04F4B6
:100620001688344013B10CB1012000E0002070BDE9
:1006300001468888C0F30800704700BFFEE7014606
:1006400000BF704700F008F803E0B9210148FFF748
:100650002CFFFAE70004004000B589B00121042016
:10066000FFF7B0FE01210220FFF79CFE01210846A2
:10067000FFF7A8FE4020ADF8200003208DF82200EF
:1006800018208DF8230008A91448FFF7FAFDC720A9
:10069000ADF8180041F61F40ADF814000020ADF889
:1006A0001A00ADF8160005A90D48FFF701FF6020FC
:1006B000ADF804000120ADF806000220ADF80C00F2
:1006C00001A90748FFF79CFE08210548FFF7E4FE53
:1006D00001210348FFF788FE09B000BD0008014072
:1006E000000400400407000800000020080000008B
:1006F0006C0100080C070008080000202809000011
:0C0700008801000800000000000000005C
:04000005080001CF1F
:00000001FF
