:020000040800F2
:1000000038070020CD01000899030008910300087B
:100010009503000875020008A7080008000000000A
:10002000000000000000000000000000DD030008E8
:1000300079020008000000009B030008F10400089A
:10004000E7010008E7010008E7010008E7010008F0
:10005000E7010008E7010008E7010008E7010008E0
:10006000E7010008E7010008E7010008E7010008D0
:10007000E7010008E7010008E7010008E7010008C0
:10008000E7010008E7010008E7010008E7010008B0
:10009000E7010008E7010008E7010008E7010008A0
:1000A000E7010008E7010008E7010008E701000890
:1000B000E7010008E7010008E7010008E701000880
:1000C000E7010008E7010008E7010008E701000870
:1000D000E7010008C1070008E7010008E701000880
:1000E000E7010008E7010008E7010008E701000850
:1000F000E7010008E7010008E7010008E701000840
:10010000E7010008E7010008E7010008E70100082F
:10011000E7010008E7010008E7010008E70100081F
:10012000E7010008E7010008E7010008E70100080F
:1001300000F002F800F03AF80AA090E8000C8244BF
:100140008344AAF10107DA4501D100F02FF8AFF29C
:10015000090EBAE80F0013F0010F18BFFB1A43F0A5
:1001600001031847C0080000E0080000103A24BF4F
:1001700078C878C1FAD8520724BF30C830C144BF0C
:1001800004680C607047000000230024002500264E
:10019000103A28BF78C1FBD8520728BF30C148BFEA
:1001A0000B6070471FB51FBD10B510BD00F033F8D0
:1001B0001146FFF7F7FF00F0A1FB00F051F803B480
:1001C000FFF7F2FF03BC00F070FB00000948804716
:1001D00009480047FEE7FEE7FEE7FEE7FEE7FEE729
:1001E000FEE7FEE7FEE7FEE704480549054A064B41
:1001F0007047000031050008310100083801002077
:10020000380700203803002038030020704770476B
:10021000704770477047754600F028F8AE460500F5
:100220006946534620F00700854618B020B5FFF711
:10023000DBFFBDE820404FF000064FF000074FF015
:1002400000084FF0000B21F00701AC46ACE8C009F4
:10025000ACE8C009ACE8C009ACE8C0098D467047FD
:100260000446AFF300802046FFF7A9FF004870471F
:10027000D400002000BFFEE770472DE9F0410246A0
:1002800000250026002000230024002791F803C049
:100290000CF00F0591F803C00CF0100CBCF1000F2E
:1002A00003D091F802C04CEA050591F800C0BCF1FA
:1002B000000F31D0146800202BE04FF0010C0CFA35
:1002C00000F3B1F800C00CEA03069E4220D183007F
:1002D0004FF00F0C0CFA03F7BC4305FA03FC4CEA91
:1002E000040491F803C0BCF1280F06D14FF0010CB3
:1002F0000CFA00FCC2F814C00AE091F803C0BCF18B
:10030000480F05D14FF0010C0CFA00FCC2F810C0E8
:10031000401C0828D1D31460B1F800C0BCF1FF0F15
:1003200034DD546800202EE000F1080C4FF0010885
:1003300008FA0CF3B1F800C00CEA03069E4221D182
:1003400083004FF00F0C0CFA03F7BC4305FA03FCD3
:100350004CEA040491F803C0BCF1280F05D100F168
:10036000080C08FA0CF8C2F8148091F803C0BCF12C
:10037000480F07D100F1080C4FF0010808FA0CF8FB
:10038000C2F81080401C0828CED35460BDE8F0812C
:1003900000BFFEE700BFFEE77047704729B1064A7D
:1003A000D2690243044BDA6104E0034AD269824312
:1003B000014BDA61704700000010024029B1064A83
:1003C00092690243044B9A6104E0034A92698243B2
:1003D000014B9A617047000000100240704710B551
:1003E00000F002F810BD00000CB500200190009054
:1003F0003348006840F480303149086000BF30481D
:10040000006800F4003000900198401C01900098B2
:1004100018B90198B0F5A06FF1D12948006800F42F
:10042000003010B10120009001E000200090009801
:10043000012843D12348006840F01000214908609A
:100440000846006820F0030008600846006840F095
:10045000020008601A484068194948600846406828
:1004600048600846406840F480604860084640683C
:1004700020F47C1048600846406840F4E81048606A
:100480000846006840F08070086000BF0C480068B3
:1004900000F000700028F9D00948406820F00300FF
:1004A000074948600846406840F00200486000BFC5
:1004B0000348406800F00C000828F9D10CBD00008A
:1004C0000010024000200240042808D14FF0E02133
:1004D000096941F004014FF0E022116107E04FF09B
:1004E000E021096921F004014FF0E0221161704719
:1004F0007047000010B504466FF00400FFF7E4FFFA
:10050000E11704EB5171C1F3C701074A117010469E
:10051000007800EB4001C1EBC0104FF6FF7101EA1B
:10052000C0000249088010BD06000020080000201D
:1005300010B51348006840F00100114908600846F2
:100540004068104908400E494860084600680E4956
:1005500008400B4908600846006820F480200860C5
:100560000846406820F4FE0048604FF41F00886091
:10057000FFF735FF4FF000600449086010BD000030
:10058000001002400000FFF8FFFFF6FE08ED00E05B
:1005900021B1028842F00102028004E002884FF695
:1005A000FE731A400280704770B5002400220023B9
:1005B000058C4FF6FE7635400584028C8388048BCB
:1005C0004FF68F752C40B51E2C400D882C43751EA0
:1005D0002A400D892A434D882A43144DA8420BD046
:1005E000134DA84208D0134DA84205D0124DA84281
:1005F00002D0124DA84213D14FF6F7752A404D890B
:100600002A434FF6FB752A408D882A434FF6FF6533
:100610002B404FF6FF552B408D892B43CD892B4323
:1006200083800483CD888586028470BD002C0140C0
:1006300000340140004001400044014000480140B6
:100640000A460021018B4FF6F773194011430183CD
:100650007047000070B5002400220023058C4FF67F
:10066000EF7635400584028C8388048B48F6FF754D
:100670002C404FF6FF452C400D884FF6FF7606EADA
:1006800005252C434FF6DF752A400D8906EA05152E
:100690002A434D8806EA05152A43154DA84202D083
:1006A000144DA8421DD14FF67F752A404D894FF653
:1006B000FF7606EA05152A434FF6BF752A408D8856
:1006C00006EA05152A434FF6FF352B404FF2FF751A
:1006D0002B408D8906EA85052B43CD8906EA8505E1
:1006E0002B4383800483CD880587028470BD00007E
:1006F000002C0140003401400A460021018B4FF2DA
:10070000FF7319404FF6FF7303EA02231943018375
:100710007047818670470187704700000022028879
:100720001D4B98420ED01D4B98420BD0B0F1804F1C
:1007300008D01B4B984205D01A4B984202D01A4B56
:10074000984204D14FF68F731A404B881A43174BC7
:10075000984207D0164B984204D04FF6FF431A40F8
:10076000CB881A4302808B8883850B8803850A4BCC
:1007700098420BD0094B984208D00E4B984205D0B6
:100780000D4B984202D00D4B984201D10B7A038653
:100790000123838270470000002C01400034014097
:1007A0000004004000080040000C00400010004021
:1007B0000014004000400140004401400048014056
:1007C00010B540F225511D4800F03EF810B31B480B
:1007D00000F064F8C4B21A48008800F40040C8B9B8
:1007E0001748008800F4804060B10A2C03D0002034
:1007F0001349088020E01248008840F40040104966
:10080000088019E00D2C06D10D48008840F4804086
:100810000B49088010E00A480088C0F30D00094920
:100820000C5407480088401C054908800846008889
:10083000C72801DD0020088010BD000000380140FD
:10084000040000200C00002070B5024600240023A4
:100850000025002040F66A16B14200D100BFC1F366
:10086000421501F01F03012606FA03F3012D02D100
:100870009689334006E0022D02D1168A334001E00A
:10088000968A33400C12012606FA04F41688344086
:1008900013B10CB1012000E0002070BD0146888832
:1008A000C0F30800704700BFFEE7014600BF704775
:1008B0000146114A12884A434FF0E0235A61002250
:1008C0009A611A46126942F001021A6100BF4FF0A4
:1008D000E022106900F001021AB100F48032002A0F
:1008E000F5D04FF0E022126922F001024FF0E02330
:1008F0001A6100229A617047080000204820FFF723
:10090000F9FD00F041F83BE04FF4FA70FFF7D0FF3B
:10091000AF211C48FFF7FDFEAF211A48FFF7FBFE91
:100920004FF4FA70FFF7C4FFB4211648FFF7F1FE49
:10093000B4211448FFF7EFFE4FF4FA70FFF7B8FF49
:10094000B9211048FFF7E5FEB9210E48FFF7E3FE95
:100950004FF4FA70FFF7ACFFBE210A48FFF7D9FE4B
:10096000BE210848FFF7D7FE4FF4FA70FFF7A0FF4B
:10097000C3210448FFF7CDFEC3210248FFF7CBFE99
:10098000C2E700000004004000B589B00121042046
:10099000FFF714FD01210220FFF700FD01210846A9
:1009A000FFF70CFDC020ADF8200003208DF82200D9
:1009B00018208DF8230008A91848FFF75EFCC7200F
:1009C000ADF8180041F61F40ADF814000020ADF856
:1009D0001A00ADF8160005A91148FFF79FFE602028
:1009E000ADF804000120ADF806000220ADF80C00BF
:1009F00001A90B48FFF7D8FD01A90948FFF72AFE16
:100A000008210748FFF71CFE08210548FFF774FE80
:100A100001210348FFF7BCFD09B000BD00080140FB
:100A200000040040440A0008000000200C00000000
:100A30006C010008500A00080C0000202C07000080
:100A40008801000800000000000000000000000015
:04000005080001CD21
:00000001FF
